{
  "_format": "hh-sol-artifact-1",
  "contractName": "CampusToken",
  "sourceName": "contracts/CampusToken.sol",
  "abi": [
    {
      "inputs": [],
      "stateMutability": "nonpayable",
      "type": "constructor"
    },
    {
      "inputs": [],
      "name": "AccessControlBadConfirmation",
      "type": "error"
    },
    {
      "inputs": [
        {
          "internalType": "address",
          "name": "account",
          "type": "address"
        },
        {
          "internalType": "bytes32",
          "name": "neededRole",
          "type": "bytes32"
        }
      ],
      "name": "AccessControlUnauthorizedAccount",
      "type": "error"
    },
    {
      "inputs": [
        {
          "internalType": "address",
          "name": "caller",
          "type": "address"
        }
      ],
      "name": "CallerNotPriviledged",
      "type": "error"
    },
    {
      "inputs": [
        {
          "internalType": "address",
          "name": "spender",
          "type": "address"
        },
        {
          "internalType": "uint256",
          "name": "allowance",
          "type": "uint256"
        },
        {
          "internalType": "uint256",
          "name": "needed",
          "type": "uint256"
        }
      ],
      "name": "ERC20InsufficientAllowance",
      "type": "error"
    },
    {
      "inputs": [
        {
          "internalType": "address",
          "name": "sender",
          "type": "address"
        },
        {
          "internalType": "uint256",
          "name": "balance",
          "type": "uint256"
        },
        {
          "internalType": "uint256",
          "name": "needed",
          "type": "uint256"
        }
      ],
      "name": "ERC20InsufficientBalance",
      "type": "error"
    },
    {
      "inputs": [
        {
          "internalType": "address",
          "name": "approver",
          "type": "address"
        }
      ],
      "name": "ERC20InvalidApprover",
      "type": "error"
    },
    {
      "inputs": [
        {
          "internalType": "address",
          "name": "receiver",
          "type": "address"
        }
      ],
      "name": "ERC20InvalidReceiver",
      "type": "error"
    },
    {
      "inputs": [
        {
          "internalType": "address",
          "name": "sender",
          "type": "address"
        }
      ],
      "name": "ERC20InvalidSender",
      "type": "error"
    },
    {
      "inputs": [
        {
          "internalType": "address",
          "name": "spender",
          "type": "address"
        }
      ],
      "name": "ERC20InvalidSpender",
      "type": "error"
    },
    {
      "inputs": [
        {
          "internalType": "address",
          "name": "owner",
          "type": "address"
        }
      ],
      "name": "OwnableInvalidOwner",
      "type": "error"
    },
    {
      "inputs": [
        {
          "internalType": "address",
          "name": "account",
          "type": "address"
        }
      ],
      "name": "OwnableUnauthorizedAccount",
      "type": "error"
    },
    {
      "anonymous": false,
      "inputs": [
        {
          "indexed": true,
          "internalType": "address",
          "name": "owner",
          "type": "address"
        },
        {
          "indexed": true,
          "internalType": "address",
          "name": "spender",
          "type": "address"
        },
        {
          "indexed": false,
          "internalType": "uint256",
          "name": "value",
          "type": "uint256"
        }
      ],
      "name": "Approval",
      "type": "event"
    },
    {
      "anonymous": false,
      "inputs": [
        {
          "indexed": true,
          "internalType": "address",
          "name": "previousOwner",
          "type": "address"
        },
        {
          "indexed": true,
          "internalType": "address",
          "name": "newOwner",
          "type": "address"
        }
      ],
      "name": "OwnershipTransferred",
      "type": "event"
    },
    {
      "anonymous": false,
      "inputs": [
        {
          "indexed": true,
          "internalType": "bytes32",
          "name": "role",
          "type": "bytes32"
        },
        {
          "indexed": true,
          "internalType": "bytes32",
          "name": "previousAdminRole",
          "type": "bytes32"
        },
        {
          "indexed": true,
          "internalType": "bytes32",
          "name": "newAdminRole",
          "type": "bytes32"
        }
      ],
      "name": "RoleAdminChanged",
      "type": "event"
    },
    {
      "anonymous": false,
      "inputs": [
        {
          "indexed": true,
          "internalType": "bytes32",
          "name": "role",
          "type": "bytes32"
        },
        {
          "indexed": true,
          "internalType": "address",
          "name": "account",
          "type": "address"
        },
        {
          "indexed": true,
          "internalType": "address",
          "name": "sender",
          "type": "address"
        }
      ],
      "name": "RoleGranted",
      "type": "event"
    },
    {
      "anonymous": false,
      "inputs": [
        {
          "indexed": true,
          "internalType": "bytes32",
          "name": "role",
          "type": "bytes32"
        },
        {
          "indexed": true,
          "internalType": "address",
          "name": "account",
          "type": "address"
        },
        {
          "indexed": true,
          "internalType": "address",
          "name": "sender",
          "type": "address"
        }
      ],
      "name": "RoleRevoked",
      "type": "event"
    },
    {
      "anonymous": false,
      "inputs": [
        {
          "indexed": true,
          "internalType": "address",
          "name": "from",
          "type": "address"
        },
        {
          "indexed": true,
          "internalType": "address",
          "name": "to",
          "type": "address"
        },
        {
          "indexed": false,
          "internalType": "uint256",
          "name": "value",
          "type": "uint256"
        }
      ],
      "name": "Transfer",
      "type": "event"
    },
    {
      "inputs": [],
      "name": "DEFAULT_ADMIN_ROLE",
      "outputs": [
        {
          "internalType": "bytes32",
          "name": "",
          "type": "bytes32"
        }
      ],
      "stateMutability": "view",
      "type": "function"
    },
    {
      "inputs": [],
      "name": "PRIV_ROLE",
      "outputs": [
        {
          "internalType": "bytes32",
          "name": "",
          "type": "bytes32"
        }
      ],
      "stateMutability": "view",
      "type": "function"
    },
    {
      "inputs": [
        {
          "internalType": "address",
          "name": "owner",
          "type": "address"
        },
        {
          "internalType": "address",
          "name": "spender",
          "type": "address"
        }
      ],
      "name": "allowance",
      "outputs": [
        {
          "internalType": "uint256",
          "name": "",
          "type": "uint256"
        }
      ],
      "stateMutability": "view",
      "type": "function"
    },
    {
      "inputs": [
        {
          "internalType": "address",
          "name": "spender",
          "type": "address"
        },
        {
          "internalType": "uint256",
          "name": "value",
          "type": "uint256"
        }
      ],
      "name": "approve",
      "outputs": [
        {
          "internalType": "bool",
          "name": "",
          "type": "bool"
        }
      ],
      "stateMutability": "nonpayable",
      "type": "function"
    },
    {
      "inputs": [
        {
          "internalType": "address",
          "name": "account",
          "type": "address"
        }
      ],
      "name": "balanceOf",
      "outputs": [
        {
          "internalType": "uint256",
          "name": "",
          "type": "uint256"
        }
      ],
      "stateMutability": "view",
      "type": "function"
    },
    {
      "inputs": [
        {
          "internalType": "uint256",
          "name": "value",
          "type": "uint256"
        }
      ],
      "name": "burn",
      "outputs": [],
      "stateMutability": "nonpayable",
      "type": "function"
    },
    {
      "inputs": [
        {
          "internalType": "address",
          "name": "account",
          "type": "address"
        },
        {
          "internalType": "uint256",
          "name": "value",
          "type": "uint256"
        }
      ],
      "name": "burnFrom",
      "outputs": [],
      "stateMutability": "nonpayable",
      "type": "function"
    },
    {
      "inputs": [],
      "name": "decimals",
      "outputs": [
        {
          "internalType": "uint8",
          "name": "",
          "type": "uint8"
        }
      ],
      "stateMutability": "view",
      "type": "function"
    },
    {
      "inputs": [
        {
          "internalType": "bytes32",
          "name": "role",
          "type": "bytes32"
        }
      ],
      "name": "getRoleAdmin",
      "outputs": [
        {
          "internalType": "bytes32",
          "name": "",
          "type": "bytes32"
        }
      ],
      "stateMutability": "view",
      "type": "function"
    },
    {
      "inputs": [
        {
          "internalType": "bytes32",
          "name": "role",
          "type": "bytes32"
        },
        {
          "internalType": "address",
          "name": "account",
          "type": "address"
        }
      ],
      "name": "grantRole",
      "outputs": [],
      "stateMutability": "nonpayable",
      "type": "function"
    },
    {
      "inputs": [
        {
          "internalType": "bytes32",
          "name": "role",
          "type": "bytes32"
        },
        {
          "internalType": "address",
          "name": "account",
          "type": "address"
        }
      ],
      "name": "hasRole",
      "outputs": [
        {
          "internalType": "bool",
          "name": "",
          "type": "bool"
        }
      ],
      "stateMutability": "view",
      "type": "function"
    },
    {
      "inputs": [
        {
          "internalType": "address",
          "name": "to",
          "type": "address"
        },
        {
          "internalType": "uint256",
          "name": "amount",
          "type": "uint256"
        }
      ],
      "name": "mint",
      "outputs": [],
      "stateMutability": "nonpayable",
      "type": "function"
    },
    {
      "inputs": [],
      "name": "name",
      "outputs": [
        {
          "internalType": "string",
          "name": "",
          "type": "string"
        }
      ],
      "stateMutability": "view",
      "type": "function"
    },
    {
      "inputs": [],
      "name": "owner",
      "outputs": [
        {
          "internalType": "address",
          "name": "",
          "type": "address"
        }
      ],
      "stateMutability": "view",
      "type": "function"
    },
    {
      "inputs": [],
      "name": "renounceOwnership",
      "outputs": [],
      "stateMutability": "nonpayable",
      "type": "function"
    },
    {
      "inputs": [
        {
          "internalType": "bytes32",
          "name": "role",
          "type": "bytes32"
        },
        {
          "internalType": "address",
          "name": "callerConfirmation",
          "type": "address"
        }
      ],
      "name": "renounceRole",
      "outputs": [],
      "stateMutability": "nonpayable",
      "type": "function"
    },
    {
      "inputs": [
        {
          "internalType": "bytes32",
          "name": "role",
          "type": "bytes32"
        },
        {
          "internalType": "address",
          "name": "account",
          "type": "address"
        }
      ],
      "name": "revokeRole",
      "outputs": [],
      "stateMutability": "nonpayable",
      "type": "function"
    },
    {
      "inputs": [],
      "name": "selfBalance",
      "outputs": [
        {
          "internalType": "uint256",
          "name": "",
          "type": "uint256"
        }
      ],
      "stateMutability": "view",
      "type": "function"
    },
    {
      "inputs": [
        {
          "internalType": "bytes4",
          "name": "interfaceId",
          "type": "bytes4"
        }
      ],
      "name": "supportsInterface",
      "outputs": [
        {
          "internalType": "bool",
          "name": "",
          "type": "bool"
        }
      ],
      "stateMutability": "view",
      "type": "function"
    },
    {
      "inputs": [],
      "name": "symbol",
      "outputs": [
        {
          "internalType": "string",
          "name": "",
          "type": "string"
        }
      ],
      "stateMutability": "view",
      "type": "function"
    },
    {
      "inputs": [],
      "name": "totalSupply",
      "outputs": [
        {
          "internalType": "uint256",
          "name": "",
          "type": "uint256"
        }
      ],
      "stateMutability": "view",
      "type": "function"
    },
    {
      "inputs": [
        {
          "internalType": "address",
          "name": "to",
          "type": "address"
        },
        {
          "internalType": "uint256",
          "name": "value",
          "type": "uint256"
        }
      ],
      "name": "transfer",
      "outputs": [
        {
          "internalType": "bool",
          "name": "",
          "type": "bool"
        }
      ],
      "stateMutability": "nonpayable",
      "type": "function"
    },
    {
      "inputs": [
        {
          "internalType": "address",
          "name": "from",
          "type": "address"
        },
        {
          "internalType": "address",
          "name": "to",
          "type": "address"
        },
        {
          "internalType": "uint256",
          "name": "value",
          "type": "uint256"
        }
      ],
      "name": "transferFrom",
      "outputs": [
        {
          "internalType": "bool",
          "name": "",
          "type": "bool"
        }
      ],
      "stateMutability": "nonpayable",
      "type": "function"
    },
    {
      "inputs": [
        {
          "internalType": "address",
          "name": "newOwner",
          "type": "address"
        }
      ],
      "name": "transferOwnership",
      "outputs": [],
      "stateMutability": "nonpayable",
      "type": "function"
    }
  ],
  "bytecode": "0x60806040523480156200001157600080fd5b506040518060400160405280600c81526020017f43616d70757320546f6b656e00000000000000000000000000000000000000008152506040518060400160405280600481526020017f464843570000000000000000000000000000000000000000000000000000000081525033600073ffffffffffffffffffffffffffffffffffffffff168173ffffffffffffffffffffffffffffffffffffffff1603620000f45760006040517f1e4fbdf7000000000000000000000000000000000000000000000000000000008152600401620000eb919062000702565b60405180910390fd5b6200010581620001ba60201b60201c565b50816005908162000117919062000999565b50806006908162000129919062000999565b505050620001416000801b336200027e60201b60201c565b50620001747f0e7bbabfbae7b223971e061ebc0b1b87c382741dcc36ee32d25a87ab998a629b336200027e60201b60201c565b50620001b4336200018a6200038160201b60201c565b600a62000198919062000c10565b620186a0620001a8919062000c61565b6200038a60201b60201c565b62000d52565b60008060009054906101000a900473ffffffffffffffffffffffffffffffffffffffff169050816000806101000a81548173ffffffffffffffffffffffffffffffffffffffff021916908373ffffffffffffffffffffffffffffffffffffffff1602179055508173ffffffffffffffffffffffffffffffffffffffff168173ffffffffffffffffffffffffffffffffffffffff167f8be0079c531659141344cd1fd0a4f28419497f9722a3daafe3b4186f6b6457e060405160405180910390a35050565b60006200029283836200041760201b60201c565b6200037657600180600085815260200190815260200160002060000160008473ffffffffffffffffffffffffffffffffffffffff1673ffffffffffffffffffffffffffffffffffffffff16815260200190815260200160002060006101000a81548160ff021916908315150217905550620003126200048260201b60201c565b73ffffffffffffffffffffffffffffffffffffffff168273ffffffffffffffffffffffffffffffffffffffff16847f2f8788117e7eff1d82e926ec794901d17c78024a50270940304540a733656f0d60405160405180910390a4600190506200037b565b600090505b92915050565b60006001905090565b600073ffffffffffffffffffffffffffffffffffffffff168273ffffffffffffffffffffffffffffffffffffffff1603620003ff5760006040517fec442f05000000000000000000000000000000000000000000000000000000008152600401620003f6919062000702565b60405180910390fd5b62000413600083836200048a60201b60201c565b5050565b60006001600084815260200190815260200160002060000160008373ffffffffffffffffffffffffffffffffffffffff1673ffffffffffffffffffffffffffffffffffffffff16815260200190815260200160002060009054906101000a900460ff16905092915050565b600033905090565b600073ffffffffffffffffffffffffffffffffffffffff168373ffffffffffffffffffffffffffffffffffffffff1603620004e0578060046000828254620004d3919062000cac565b92505081905550620005b8565b6000600260008573ffffffffffffffffffffffffffffffffffffffff1673ffffffffffffffffffffffffffffffffffffffff1681526020019081526020016000205490508181101562000570578381836040517fe450d38c000000000000000000000000000000000000000000000000000000008152600401620005679392919062000cf8565b60405180910390fd5b818103600260008673ffffffffffffffffffffffffffffffffffffffff1673ffffffffffffffffffffffffffffffffffffffff16815260200190815260200160002081905550505b600073ffffffffffffffffffffffffffffffffffffffff168273ffffffffffffffffffffffffffffffffffffffff160362000603578060046000828254039250508190555062000651565b80600260008473ffffffffffffffffffffffffffffffffffffffff1673ffffffffffffffffffffffffffffffffffffffff168152602001908152602001600020600082825401925050819055505b8173ffffffffffffffffffffffffffffffffffffffff168373ffffffffffffffffffffffffffffffffffffffff167fddf252ad1be2c89b69c2b068fc378daa952ba7f163c4a11628f55a4df523b3ef83604051620006b0919062000d35565b60405180910390a3505050565b600073ffffffffffffffffffffffffffffffffffffffff82169050919050565b6000620006ea82620006bd565b9050919050565b620006fc81620006dd565b82525050565b6000602082019050620007196000830184620006f1565b92915050565b600081519050919050565b7f4e487b7100000000000000000000000000000000000000000000000000000000600052604160045260246000fd5b7f4e487b7100000000000000000000000000000000000000000000000000000000600052602260045260246000fd5b60006002820490506001821680620007a157607f821691505b602082108103620007b757620007b662000759565b5b50919050565b60008190508160005260206000209050919050565b60006020601f8301049050919050565b600082821b905092915050565b600060088302620008217fffffffffffffffffffffffffffffffffffffffffffffffffffffffffffffffff82620007e2565b6200082d8683620007e2565b95508019841693508086168417925050509392505050565b6000819050919050565b6000819050919050565b60006200087a620008746200086e8462000845565b6200084f565b62000845565b9050919050565b6000819050919050565b620008968362000859565b620008ae620008a58262000881565b848454620007ef565b825550505050565b600090565b620008c5620008b6565b620008d28184846200088b565b505050565b5b81811015620008fa57620008ee600082620008bb565b600181019050620008d8565b5050565b601f82111562000949576200091381620007bd565b6200091e84620007d2565b810160208510156200092e578190505b620009466200093d85620007d2565b830182620008d7565b50505b505050565b600082821c905092915050565b60006200096e600019846008026200094e565b1980831691505092915050565b60006200098983836200095b565b9150826002028217905092915050565b620009a4826200071f565b67ffffffffffffffff811115620009c057620009bf6200072a565b5b620009cc825462000788565b620009d9828285620008fe565b600060209050601f83116001811462000a115760008415620009fc578287015190505b62000a0885826200097b565b86555062000a78565b601f19841662000a2186620007bd565b60005b8281101562000a4b5784890151825560018201915060208501945060208101905062000a24565b8683101562000a6b578489015162000a67601f8916826200095b565b8355505b6001600288020188555050505b505050505050565b7f4e487b7100000000000000000000000000000000000000000000000000000000600052601160045260246000fd5b60008160011c9050919050565b6000808291508390505b600185111562000b0e5780860481111562000ae65762000ae562000a80565b5b600185161562000af65780820291505b808102905062000b068562000aaf565b945062000ac6565b94509492505050565b60008262000b29576001905062000bfc565b8162000b39576000905062000bfc565b816001811462000b52576002811462000b5d5762000b93565b600191505062000bfc565b60ff84111562000b725762000b7162000a80565b5b8360020a91508482111562000b8c5762000b8b62000a80565b5b5062000bfc565b5060208310610133831016604e8410600b841016171562000bcd5782820a90508381111562000bc75762000bc662000a80565b5b62000bfc565b62000bdc848484600162000abc565b9250905081840481111562000bf65762000bf562000a80565b5b81810290505b9392505050565b600060ff82169050919050565b600062000c1d8262000845565b915062000c2a8362000c03565b925062000c597fffffffffffffffffffffffffffffffffffffffffffffffffffffffffffffffff848462000b17565b905092915050565b600062000c6e8262000845565b915062000c7b8362000845565b925082820262000c8b8162000845565b9150828204841483151762000ca55762000ca462000a80565b5b5092915050565b600062000cb98262000845565b915062000cc68362000845565b925082820190508082111562000ce15762000ce062000a80565b5b92915050565b62000cf28162000845565b82525050565b600060608201905062000d0f6000830186620006f1565b62000d1e602083018562000ce7565b62000d2d604083018462000ce7565b949350505050565b600060208201905062000d4c600083018462000ce7565b92915050565b611c168062000d626000396000f3fe608060405234801561001057600080fd5b50600436106101585760003560e01c8063715018a6116100c3578063a9059cbb1161007c578063a9059cbb146103c7578063b0bed0ba146103f7578063d547741f14610415578063dd62ed3e14610431578063dfce624014610461578063f2fde38b1461047f57610158565b8063715018a61461031757806379cc6790146103215780638da5cb5b1461033d57806391d148541461035b57806395d89b411461038b578063a217fddf146103a957610158565b80632f2ff15d116101155780632f2ff15d14610259578063313ce5671461027557806336568abe1461029357806340c10f19146102af57806342966c68146102cb57806370a08231146102e757610158565b806301ffc9a71461015d57806306fdde031461018d578063095ea7b3146101ab57806318160ddd146101db57806323b872dd146101f9578063248a9ca314610229575b600080fd5b610177600480360381019061017291906115fd565b61049b565b6040516101849190611645565b60405180910390f35b610195610515565b6040516101a291906116f0565b60405180910390f35b6101c560048036038101906101c091906117a6565b6105a7565b6040516101d29190611645565b60405180910390f35b6101e36105ca565b6040516101f091906117f5565b60405180910390f35b610213600480360381019061020e9190611810565b6105d4565b6040516102209190611645565b60405180910390f35b610243600480360381019061023e9190611899565b61063e565b60405161025091906118d5565b60405180910390f35b610273600480360381019061026e91906118f0565b61065e565b005b61027d610680565b60405161028a919061194c565b60405180910390f35b6102ad60048036038101906102a891906118f0565b610689565b005b6102c960048036038101906102c491906117a6565b610704565b005b6102e560048036038101906102e09190611967565b610782565b005b61030160048036038101906102fc9190611994565b610796565b60405161030e91906117f5565b60405180910390f35b61031f6107df565b005b61033b600480360381019061033691906117a6565b6107f3565b005b610345610813565b60405161035291906119d0565b60405180910390f35b610375600480360381019061037091906118f0565b61083c565b6040516103829190611645565b60405180910390f35b6103936108a7565b6040516103a091906116f0565b60405180910390f35b6103b1610939565b6040516103be91906118d5565b60405180910390f35b6103e160048036038101906103dc91906117a6565b610940565b6040516103ee9190611645565b60405180910390f35b6103ff610963565b60405161040c91906117f5565b60405180910390f35b61042f600480360381019061042a91906118f0565b6109aa565b005b61044b600480360381019061044691906119eb565b6109cc565b60405161045891906117f5565b60405180910390f35b610469610a53565b60405161047691906118d5565b60405180910390f35b61049960048036038101906104949190611994565b610a77565b005b60007f7965db0b000000000000000000000000000000000000000000000000000000007bffffffffffffffffffffffffffffffffffffffffffffffffffffffff1916827bffffffffffffffffffffffffffffffffffffffffffffffffffffffff1916148061050e575061050d82610afd565b5b9050919050565b60606005805461052490611a5a565b80601f016020809104026020016040519081016040528092919081815260200182805461055090611a5a565b801561059d5780601f106105725761010080835404028352916020019161059d565b820191906000526020600020905b81548152906001019060200180831161058057829003601f168201915b5050505050905090565b6000806105b2610b67565b90506105bf818585610b6f565b600191505092915050565b6000600454905090565b6000806105df610b67565b905061060b7f0e7bbabfbae7b223971e061ebc0b1b87c382741dcc36ee32d25a87ab998a629b8261083c565b1561061c5761061b858285610b6f565b5b610627858285610b81565b610632858585610c15565b60019150509392505050565b600060016000838152602001908152602001600020600101549050919050565b6106678261063e565b61067081610d09565b61067a8383610d1d565b50505050565b60006001905090565b610691610b67565b73ffffffffffffffffffffffffffffffffffffffff168173ffffffffffffffffffffffffffffffffffffffff16146106f5576040517f6697b23200000000000000000000000000000000000000000000000000000000815260040160405180910390fd5b6106ff8282610e0e565b505050565b6107357f0e7bbabfbae7b223971e061ebc0b1b87c382741dcc36ee32d25a87ab998a629b610730610b67565b61083c565b610774576040517f08c379a000000000000000000000000000000000000000000000000000000000815260040161076b90611afd565b60405180910390fd5b61077e8282610f01565b5050565b61079361078d610b67565b82610f83565b50565b6000600260008373ffffffffffffffffffffffffffffffffffffffff1673ffffffffffffffffffffffffffffffffffffffff168152602001908152602001600020549050919050565b6107e7611005565b6107f1600061108c565b565b610805826107ff610b67565b83610b81565b61080f8282610f83565b5050565b60008060009054906101000a900473ffffffffffffffffffffffffffffffffffffffff16905090565b60006001600084815260200190815260200160002060000160008373ffffffffffffffffffffffffffffffffffffffff1673ffffffffffffffffffffffffffffffffffffffff16815260200190815260200160002060009054906101000a900460ff16905092915050565b6060600680546108b690611a5a565b80601f01602080910402602001604051908101604052809291908181526020018280546108e290611a5a565b801561092f5780601f106109045761010080835404028352916020019161092f565b820191906000526020600020905b81548152906001019060200180831161091257829003601f168201915b5050505050905090565b6000801b81565b60008061094b610b67565b9050610958818585610c15565b600191505092915050565b6000600760003373ffffffffffffffffffffffffffffffffffffffff1673ffffffffffffffffffffffffffffffffffffffff16815260200190815260200160002054905090565b6109b38261063e565b6109bc81610d09565b6109c68383610e0e565b50505050565b6000600360008473ffffffffffffffffffffffffffffffffffffffff1673ffffffffffffffffffffffffffffffffffffffff16815260200190815260200160002060008373ffffffffffffffffffffffffffffffffffffffff1673ffffffffffffffffffffffffffffffffffffffff16815260200190815260200160002054905092915050565b7f0e7bbabfbae7b223971e061ebc0b1b87c382741dcc36ee32d25a87ab998a629b81565b610a7f611005565b600073ffffffffffffffffffffffffffffffffffffffff168173ffffffffffffffffffffffffffffffffffffffff1603610af15760006040517f1e4fbdf7000000000000000000000000000000000000000000000000000000008152600401610ae891906119d0565b60405180910390fd5b610afa8161108c565b50565b60007f01ffc9a7000000000000000000000000000000000000000000000000000000007bffffffffffffffffffffffffffffffffffffffffffffffffffffffff1916827bffffffffffffffffffffffffffffffffffffffffffffffffffffffff1916149050919050565b600033905090565b610b7c8383836001611150565b505050565b6000610b8d84846109cc565b90507fffffffffffffffffffffffffffffffffffffffffffffffffffffffffffffffff8114610c0f5781811015610bff578281836040517ffb8f41b2000000000000000000000000000000000000000000000000000000008152600401610bf693929190611b1d565b60405180910390fd5b610c0e84848484036000611150565b5b50505050565b600073ffffffffffffffffffffffffffffffffffffffff168373ffffffffffffffffffffffffffffffffffffffff1603610c875760006040517f96c6fd1e000000000000000000000000000000000000000000000000000000008152600401610c7e91906119d0565b60405180910390fd5b600073ffffffffffffffffffffffffffffffffffffffff168273ffffffffffffffffffffffffffffffffffffffff1603610cf95760006040517fec442f05000000000000000000000000000000000000000000000000000000008152600401610cf091906119d0565b60405180910390fd5b610d04838383611327565b505050565b610d1a81610d15610b67565b61154f565b50565b6000610d29838361083c565b610e0357600180600085815260200190815260200160002060000160008473ffffffffffffffffffffffffffffffffffffffff1673ffffffffffffffffffffffffffffffffffffffff16815260200190815260200160002060006101000a81548160ff021916908315150217905550610da0610b67565b73ffffffffffffffffffffffffffffffffffffffff168273ffffffffffffffffffffffffffffffffffffffff16847f2f8788117e7eff1d82e926ec794901d17c78024a50270940304540a733656f0d60405160405180910390a460019050610e08565b600090505b92915050565b6000610e1a838361083c565b15610ef65760006001600085815260200190815260200160002060000160008473ffffffffffffffffffffffffffffffffffffffff1673ffffffffffffffffffffffffffffffffffffffff16815260200190815260200160002060006101000a81548160ff021916908315150217905550610e93610b67565b73ffffffffffffffffffffffffffffffffffffffff168273ffffffffffffffffffffffffffffffffffffffff16847ff6391f5c32d9c69d2a47ea670b442974b53935d1edc7fd64eb21e047a839171b60405160405180910390a460019050610efb565b600090505b92915050565b600073ffffffffffffffffffffffffffffffffffffffff168273ffffffffffffffffffffffffffffffffffffffff1603610f735760006040517fec442f05000000000000000000000000000000000000000000000000000000008152600401610f6a91906119d0565b60405180910390fd5b610f7f60008383611327565b5050565b600073ffffffffffffffffffffffffffffffffffffffff168273ffffffffffffffffffffffffffffffffffffffff1603610ff55760006040517f96c6fd1e000000000000000000000000000000000000000000000000000000008152600401610fec91906119d0565b60405180910390fd5b61100182600083611327565b5050565b61100d610b67565b73ffffffffffffffffffffffffffffffffffffffff1661102b610813565b73ffffffffffffffffffffffffffffffffffffffff161461108a5761104e610b67565b6040517f118cdaa700000000000000000000000000000000000000000000000000000000815260040161108191906119d0565b60405180910390fd5b565b60008060009054906101000a900473ffffffffffffffffffffffffffffffffffffffff169050816000806101000a81548173ffffffffffffffffffffffffffffffffffffffff021916908373ffffffffffffffffffffffffffffffffffffffff1602179055508173ffffffffffffffffffffffffffffffffffffffff168173ffffffffffffffffffffffffffffffffffffffff167f8be0079c531659141344cd1fd0a4f28419497f9722a3daafe3b4186f6b6457e060405160405180910390a35050565b600073ffffffffffffffffffffffffffffffffffffffff168473ffffffffffffffffffffffffffffffffffffffff16036111c25760006040517fe602df050000000000000000000000000000000000000000000000000000000081526004016111b991906119d0565b60405180910390fd5b600073ffffffffffffffffffffffffffffffffffffffff168373ffffffffffffffffffffffffffffffffffffffff16036112345760006040517f94280d6200000000000000000000000000000000000000000000000000000000815260040161122b91906119d0565b60405180910390fd5b81600360008673ffffffffffffffffffffffffffffffffffffffff1673ffffffffffffffffffffffffffffffffffffffff16815260200190815260200160002060008573ffffffffffffffffffffffffffffffffffffffff1673ffffffffffffffffffffffffffffffffffffffff168152602001908152602001600020819055508015611321578273ffffffffffffffffffffffffffffffffffffffff168473ffffffffffffffffffffffffffffffffffffffff167f8c5be1e5ebec7d5bd14f71427d1e84f3dd0314c0f7b2291e5b200ac8c7c3b9258460405161131891906117f5565b60405180910390a35b50505050565b600073ffffffffffffffffffffffffffffffffffffffff168373ffffffffffffffffffffffffffffffffffffffff160361137957806004600082825461136d9190611b83565b9250508190555061144e565b6000600260008573ffffffffffffffffffffffffffffffffffffffff1673ffffffffffffffffffffffffffffffffffffffff16815260200190815260200160002054905081811015611406578381836040517fe450d38c0000000000000000000000000000000000000000000000000000000081526004016113fd93929190611b1d565b60405180910390fd5b818103600260008673ffffffffffffffffffffffffffffffffffffffff1673ffffffffffffffffffffffffffffffffffffffff16815260200190815260200160002081905550505b600073ffffffffffffffffffffffffffffffffffffffff168273ffffffffffffffffffffffffffffffffffffffff160361149757806004600082825403925050819055506114e5565b80600260008473ffffffffffffffffffffffffffffffffffffffff1673ffffffffffffffffffffffffffffffffffffffff168152602001908152602001600020600082825401925050819055505b8173ffffffffffffffffffffffffffffffffffffffff168373ffffffffffffffffffffffffffffffffffffffff167fddf252ad1be2c89b69c2b068fc378daa952ba7f163c4a11628f55a4df523b3ef8360405161154291906117f5565b60405180910390a3505050565b611559828261083c565b61159c5780826040517fe2517d3f000000000000000000000000000000000000000000000000000000008152600401611593929190611bb7565b60405180910390fd5b5050565b600080fd5b60007fffffffff0000000000000000000000000000000000000000000000000000000082169050919050565b6115da816115a5565b81146115e557600080fd5b50565b6000813590506115f7816115d1565b92915050565b600060208284031215611613576116126115a0565b5b6000611621848285016115e8565b91505092915050565b60008115159050919050565b61163f8161162a565b82525050565b600060208201905061165a6000830184611636565b92915050565b600081519050919050565b600082825260208201905092915050565b60005b8381101561169a57808201518184015260208101905061167f565b60008484015250505050565b6000601f19601f8301169050919050565b60006116c282611660565b6116cc818561166b565b93506116dc81856020860161167c565b6116e5816116a6565b840191505092915050565b6000602082019050818103600083015261170a81846116b7565b905092915050565b600073ffffffffffffffffffffffffffffffffffffffff82169050919050565b600061173d82611712565b9050919050565b61174d81611732565b811461175857600080fd5b50565b60008135905061176a81611744565b92915050565b6000819050919050565b61178381611770565b811461178e57600080fd5b50565b6000813590506117a08161177a565b92915050565b600080604083850312156117bd576117bc6115a0565b5b60006117cb8582860161175b565b92505060206117dc85828601611791565b9150509250929050565b6117ef81611770565b82525050565b600060208201905061180a60008301846117e6565b92915050565b600080600060608486031215611829576118286115a0565b5b60006118378682870161175b565b93505060206118488682870161175b565b925050604061185986828701611791565b9150509250925092565b6000819050919050565b61187681611863565b811461188157600080fd5b50565b6000813590506118938161186d565b92915050565b6000602082840312156118af576118ae6115a0565b5b60006118bd84828501611884565b91505092915050565b6118cf81611863565b82525050565b60006020820190506118ea60008301846118c6565b92915050565b60008060408385031215611907576119066115a0565b5b600061191585828601611884565b92505060206119268582860161175b565b9150509250929050565b600060ff82169050919050565b61194681611930565b82525050565b6000602082019050611961600083018461193d565b92915050565b60006020828403121561197d5761197c6115a0565b5b600061198b84828501611791565b91505092915050565b6000602082840312156119aa576119a96115a0565b5b60006119b88482850161175b565b91505092915050565b6119ca81611732565b82525050565b60006020820190506119e560008301846119c1565b92915050565b60008060408385031215611a0257611a016115a0565b5b6000611a108582860161175b565b9250506020611a218582860161175b565b9150509250929050565b7f4e487b7100000000000000000000000000000000000000000000000000000000600052602260045260246000fd5b60006002820490506001821680611a7257607f821691505b602082108103611a8557611a84611a2b565b5b50919050565b7f4d75737420686176652070726976696c656467656420726f6c6520746f206d6960008201527f6e74000000000000000000000000000000000000000000000000000000000000602082015250565b6000611ae760228361166b565b9150611af282611a8b565b604082019050919050565b60006020820190508181036000830152611b1681611ada565b9050919050565b6000606082019050611b3260008301866119c1565b611b3f60208301856117e6565b611b4c60408301846117e6565b949350505050565b7f4e487b7100000000000000000000000000000000000000000000000000000000600052601160045260246000fd5b6000611b8e82611770565b9150611b9983611770565b9250828201905080821115611bb157611bb0611b54565b5b92915050565b6000604082019050611bcc60008301856119c1565b611bd960208301846118c6565b939250505056fea2646970667358221220db4751fa28c595d72b56f92a23de21751a694c59a4afb152964b6e81502ffcb064736f6c63430008180033",
  "linkReferences": {},
  "deployedLinkReferences": {}
}