{
  "_format": "hh-sol-artifact-1",
  "contractName": "FHCWVendor",
  "sourceName": "contracts/FHCWVendor.sol",
  "abi": [
    {
      "inputs": [
        {
          "internalType": "address",
          "name": "_campusTokenAddress",
          "type": "address"
        },
        {
          "internalType": "address",
          "name": "_chainlinkVRF",
          "type": "address"
        }
      ],
      "stateMutability": "payable",
      "type": "constructor"
    },
    {
      "inputs": [
        {
          "internalType": "address",
          "name": "owner",
          "type": "address"
        }
      ],
      "name": "OwnableInvalidOwner",
      "type": "error"
    },
    {
      "inputs": [
        {
          "internalType": "address",
          "name": "account",
          "type": "address"
        }
      ],
      "name": "OwnableUnauthorizedAccount",
      "type": "error"
    },
    {
      "anonymous": false,
      "inputs": [
        {
          "indexed": true,
          "internalType": "address",
          "name": "previousOwner",
          "type": "address"
        },
        {
          "indexed": true,
          "internalType": "address",
          "name": "newOwner",
          "type": "address"
        }
      ],
      "name": "OwnershipTransferred",
      "type": "event"
    },
    {
      "inputs": [],
      "name": "balanceOfVendor",
      "outputs": [
        {
          "internalType": "uint256",
          "name": "",
          "type": "uint256"
        }
      ],
      "stateMutability": "view",
      "type": "function"
    },
    {
      "inputs": [],
      "name": "buyTokens",
      "outputs": [
        {
          "internalType": "uint256",
          "name": "tokensCount",
          "type": "uint256"
        }
      ],
      "stateMutability": "payable",
      "type": "function"
    },
    {
      "inputs": [],
      "name": "callGenerateRandomWords",
      "outputs": [],
      "stateMutability": "nonpayable",
      "type": "function"
    },
    {
      "inputs": [],
      "name": "campusToken",
      "outputs": [
        {
          "internalType": "contract CampusToken",
          "name": "",
          "type": "address"
        }
      ],
      "stateMutability": "view",
      "type": "function"
    },
    {
      "inputs": [],
      "name": "chainlinkVRF",
      "outputs": [
        {
          "internalType": "contract VRFv2Consumer",
          "name": "",
          "type": "address"
        }
      ],
      "stateMutability": "view",
      "type": "function"
    },
    {
      "inputs": [
        {
          "internalType": "bytes32",
          "name": "_hash",
          "type": "bytes32"
        }
      ],
      "name": "commitSolution",
      "outputs": [],
      "stateMutability": "nonpayable",
      "type": "function"
    },
    {
      "inputs": [],
      "name": "curRiddleHash",
      "outputs": [
        {
          "internalType": "bytes32",
          "name": "",
          "type": "bytes32"
        }
      ],
      "stateMutability": "view",
      "type": "function"
    },
    {
      "inputs": [
        {
          "internalType": "uint256",
          "name": "_rewardAmount",
          "type": "uint256"
        },
        {
          "internalType": "address[]",
          "name": "receivers",
          "type": "address[]"
        }
      ],
      "name": "multipleReward",
      "outputs": [],
      "stateMutability": "nonpayable",
      "type": "function"
    },
    {
      "inputs": [],
      "name": "owner",
      "outputs": [
        {
          "internalType": "address",
          "name": "",
          "type": "address"
        }
      ],
      "stateMutability": "view",
      "type": "function"
    },
    {
      "inputs": [],
      "name": "randomReward",
      "outputs": [
        {
          "internalType": "uint256",
          "name": "",
          "type": "uint256"
        }
      ],
      "stateMutability": "nonpayable",
      "type": "function"
    },
    {
      "inputs": [],
      "name": "renounceOwnership",
      "outputs": [],
      "stateMutability": "nonpayable",
      "type": "function"
    },
    {
      "inputs": [
        {
          "internalType": "string",
          "name": "_solution",
          "type": "string"
        },
        {
          "internalType": "string",
          "name": "_secret",
          "type": "string"
        }
      ],
      "name": "revealSolution",
      "outputs": [],
      "stateMutability": "nonpayable",
      "type": "function"
    },
    {
      "inputs": [
        {
          "internalType": "uint256",
          "name": "tokens",
          "type": "uint256"
        }
      ],
      "name": "reward",
      "outputs": [
        {
          "internalType": "string",
          "name": "",
          "type": "string"
        }
      ],
      "stateMutability": "nonpayable",
      "type": "function"
    },
    {
      "inputs": [
        {
          "internalType": "string",
          "name": "riddleInput",
          "type": "string"
        }
      ],
      "name": "riddleReward",
      "outputs": [],
      "stateMutability": "nonpayable",
      "type": "function"
    },
    {
      "inputs": [],
      "name": "riddleRewardAmount",
      "outputs": [
        {
          "internalType": "uint256",
          "name": "",
          "type": "uint256"
        }
      ],
      "stateMutability": "view",
      "type": "function"
    },
    {
      "inputs": [
        {
          "internalType": "uint256",
          "name": "sellAmount",
          "type": "uint256"
        }
      ],
      "name": "sellTokens",
      "outputs": [],
      "stateMutability": "nonpayable",
      "type": "function"
    },
    {
      "inputs": [],
      "name": "tokenEthRatio",
      "outputs": [
        {
          "internalType": "uint256",
          "name": "",
          "type": "uint256"
        }
      ],
      "stateMutability": "view",
      "type": "function"
    },
    {
      "inputs": [
        {
          "internalType": "address",
          "name": "newOwner",
          "type": "address"
        }
      ],
      "name": "transferOwnership",
      "outputs": [],
      "stateMutability": "nonpayable",
      "type": "function"
    },
    {
      "inputs": [],
      "name": "withdraw",
      "outputs": [],
      "stateMutability": "nonpayable",
      "type": "function"
    },
    {
      "stateMutability": "payable",
      "type": "receive"
    }
  ],
  "bytecode": "0x60806040526103e86003556006600460006101000a81548160ff021916908360ff160217905550600460009054906101000a900460ff1660ff16610258620000489190620003f8565b61ffff16600460096101000a81548167ffffffffffffffff021916908367ffffffffffffffff160217905550600460009054906101000a900460ff1660ff16620151806200009791906200043f565b62ffffff16600560006101000a81548167ffffffffffffffff021916908367ffffffffffffffff1602179055507f53e61710ae17ed8d626f337ee873b5712496127c5b096c597ed1e733518c48b260001b600655671bc16d674ec800006007556000600860006101000a81548160ff0219169083151502179055506040516200383f3803806200383f8339818101604052810190620001379190620004e1565b33600073ffffffffffffffffffffffffffffffffffffffff168173ffffffffffffffffffffffffffffffffffffffff1603620001ad5760006040517f1e4fbdf7000000000000000000000000000000000000000000000000000000008152600401620001a4919062000539565b60405180910390fd5b620001be81620002c860201b60201c565b50600460009054906101000a900460ff166078620001dd919062000563565b60ff1643620001ed9190620005a5565b600460016101000a81548167ffffffffffffffff021916908367ffffffffffffffff16021790555043600460116101000a81548167ffffffffffffffff021916908367ffffffffffffffff16021790555081600160006101000a81548173ffffffffffffffffffffffffffffffffffffffff021916908373ffffffffffffffffffffffffffffffffffffffff16021790555080600260006101000a81548173ffffffffffffffffffffffffffffffffffffffff021916908373ffffffffffffffffffffffffffffffffffffffff1602179055505050620005e0565b60008060009054906101000a900473ffffffffffffffffffffffffffffffffffffffff169050816000806101000a81548173ffffffffffffffffffffffffffffffffffffffff021916908373ffffffffffffffffffffffffffffffffffffffff1602179055508173ffffffffffffffffffffffffffffffffffffffff168173ffffffffffffffffffffffffffffffffffffffff167f8be0079c531659141344cd1fd0a4f28419497f9722a3daafe3b4186f6b6457e060405160405180910390a35050565b600061ffff82169050919050565b7f4e487b7100000000000000000000000000000000000000000000000000000000600052601260045260246000fd5b7f4e487b7100000000000000000000000000000000000000000000000000000000600052601160045260246000fd5b600062000405826200038c565b915062000412836200038c565b9250826200042557620004246200039a565b5b828204905092915050565b600062ffffff82169050919050565b60006200044c8262000430565b9150620004598362000430565b9250826200046c576200046b6200039a565b5b828204905092915050565b600080fd5b600073ffffffffffffffffffffffffffffffffffffffff82169050919050565b6000620004a9826200047c565b9050919050565b620004bb816200049c565b8114620004c757600080fd5b50565b600081519050620004db81620004b0565b92915050565b60008060408385031215620004fb57620004fa62000477565b5b60006200050b85828601620004ca565b92505060206200051e85828601620004ca565b9150509250929050565b62000533816200049c565b82525050565b600060208201905062000550600083018462000528565b92915050565b600060ff82169050919050565b6000620005708262000556565b91506200057d8362000556565b92508262000590576200058f6200039a565b5b828204905092915050565b6000819050919050565b6000620005b2826200059b565b9150620005bf836200059b565b9250828201905080821115620005da57620005d9620003c9565b5b92915050565b61324f80620005f06000396000f3fe6080604052600436106101185760003560e01c8063715018a6116100a0578063b513b72911610064578063b513b7291461035e578063d0febe4c14610389578063f2fde38b146103a7578063f6943e32146103d0578063f921c9c0146103fb5761011f565b8063715018a6146102895780638719bf94146102a05780638da5cb5b146102cb578063900f519d146102f6578063a9fb763c146103215761011f565b80635d7a9cd5116100e75780635d7a9cd5146101b857806363ebfe60146101e1578063686ca00d1461020c5780636a8e7a6b146102375780636c11bcd3146102605761011f565b806306a193841461012457806339b8b13d1461014d5780633b040d31146101785780633ccfd60b146101a15761011f565b3661011f57005b600080fd5b34801561013057600080fd5b5061014b60048036038101906101469190611bac565b610412565b005b34801561015957600080fd5b5061016261051f565b60405161016f9190611bf2565b60405180910390f35b34801561018457600080fd5b5061019f600480360381019061019a9190611df0565b6106f1565b005b3480156101ad57600080fd5b506101b66108b8565b005b3480156101c457600080fd5b506101df60048036038101906101da9190611f01565b6109b8565b005b3480156101ed57600080fd5b506101f6610bc7565b6040516102039190611bf2565b60405180910390f35b34801561021857600080fd5b50610221610bcd565b60405161022e9190611bf2565b60405180910390f35b34801561024357600080fd5b5061025e60048036038101906102599190611f4a565b610c70565b005b34801561026c57600080fd5b5061028760048036038101906102829190611fc2565b610f91565b005b34801561029557600080fd5b5061029e611273565b005b3480156102ac57600080fd5b506102b5611287565b6040516102c29190611bf2565b60405180910390f35b3480156102d757600080fd5b506102e061128d565b6040516102ed9190611ffe565b60405180910390f35b34801561030257600080fd5b5061030b6112b6565b6040516103189190612028565b60405180910390f35b34801561032d57600080fd5b5061034860048036038101906103439190611fc2565b6112bc565b60405161035591906120c2565b60405180910390f35b34801561036a57600080fd5b50610373611472565b6040516103809190612143565b60405180910390f35b610391611498565b60405161039e9190611bf2565b60405180910390f35b3480156103b357600080fd5b506103ce60048036038101906103c9919061215e565b611601565b005b3480156103dc57600080fd5b506103e5611687565b6040516103f291906121ac565b60405180910390f35b34801561040757600080fd5b506104106116ad565b005b600860009054906101000a900460ff1615610462576040517f08c379a000000000000000000000000000000000000000000000000000000000815260040161045990612239565b60405180910390fd5b6000600960003373ffffffffffffffffffffffffffffffffffffffff1673ffffffffffffffffffffffffffffffffffffffff168152602001908152602001600020905060008160010154146104ec576040517f08c379a00000000000000000000000000000000000000000000000000000000081526004016104e3906122a5565b60405180910390fd5b81816000018190555042816001018190555060008160020160006101000a81548160ff0219169083151502179055505050565b600061054b43600460119054906101000a900467ffffffffffffffff1667ffffffffffffffff1661188a565b600460119054906101000a900467ffffffffffffffff1667ffffffffffffffff164310156105ae576040517f08c379a00000000000000000000000000000000000000000000000000000000081526004016105a590612337565b60405180910390fd5b600060646104d2436105c09190612386565b6105ca91906123f7565b9050600160009054906101000a900473ffffffffffffffffffffffffffffffffffffffff1673ffffffffffffffffffffffffffffffffffffffff1663a9059cbb33836040518363ffffffff1660e01b8152600401610629929190612428565b6020604051808303816000875af1158015610648573d6000803e3d6000fd5b505050506040513d601f19601f8201168201806040525081019061066c9190612489565b50600560009054906101000a900467ffffffffffffffff1667ffffffffffffffff164361069991906124b6565b600460116101000a81548167ffffffffffffffff021916908367ffffffffffffffff1602179055506106ea600460119054906101000a900467ffffffffffffffff1667ffffffffffffffff16611926565b8091505090565b61071b43600460019054906101000a900467ffffffffffffffff1667ffffffffffffffff1661188a565b600460019054906101000a900467ffffffffffffffff1667ffffffffffffffff1643101561077e576040517f08c379a000000000000000000000000000000000000000000000000000000000815260040161077590612536565b60405180910390fd5b60005b815181101561085257600160009054906101000a900473ffffffffffffffffffffffffffffffffffffffff1673ffffffffffffffffffffffffffffffffffffffff1663a9059cbb8383815181106107db576107da612556565b5b6020026020010151856040518363ffffffff1660e01b8152600401610801929190612428565b6020604051808303816000875af1158015610820573d6000803e3d6000fd5b505050506040513d601f19601f820116820180604052508101906108449190612489565b508080600101915050610781565b50600460099054906101000a900467ffffffffffffffff16600460018282829054906101000a900467ffffffffffffffff1661088e9190612599565b92506101000a81548167ffffffffffffffff021916908367ffffffffffffffff1602179055505050565b6108c06119bf565b600047905060008111610908576040517f08c379a00000000000000000000000000000000000000000000000000000000081526004016108ff90612621565b60405180910390fd5b60003373ffffffffffffffffffffffffffffffffffffffff168260405161092e90612672565b60006040518083038185875af1925050503d806000811461096b576040519150601f19603f3d011682016040523d82523d6000602084013e610970565b606091505b50509050806109b4576040517f08c379a00000000000000000000000000000000000000000000000000000000081526004016109ab906126d3565b60405180910390fd5b5050565b6109c061128d565b73ffffffffffffffffffffffffffffffffffffffff163373ffffffffffffffffffffffffffffffffffffffff1603610a3f5780604051602001610a03919061272f565b604051602081830303815290604052805190602001206006819055506000600860006101000a81548160ff021916908315150217905550610bc4565b600860009054906101000a900460ff1615610a8f576040517f08c379a0000000000000000000000000000000000000000000000000000000008152600401610a8690612239565b60405180910390fd5b80604051602001610aa0919061272f565b6040516020818303038152906040528051906020012060065414610af9576040517f08c379a0000000000000000000000000000000000000000000000000000000008152600401610af090612792565b60405180910390fd5b60003373ffffffffffffffffffffffffffffffffffffffff16600754604051610b2190612672565b60006040518083038185875af1925050503d8060008114610b5e576040519150601f19603f3d011682016040523d82523d6000602084013e610b63565b606091505b5050905080610ba7576040517f08c379a0000000000000000000000000000000000000000000000000000000008152600401610b9e906127fe565b60405180910390fd5b6001600860006101000a81548160ff021916908315150217905550505b50565b60035481565b6000600160009054906101000a900473ffffffffffffffffffffffffffffffffffffffff1673ffffffffffffffffffffffffffffffffffffffff166370a08231306040518263ffffffff1660e01b8152600401610c2a9190611ffe565b602060405180830381865afa158015610c47573d6000803e3d6000fd5b505050506040513d601f19601f82011682018060405250810190610c6b9190612833565b905090565b600860009054906101000a900460ff1615610cc0576040517f08c379a0000000000000000000000000000000000000000000000000000000008152600401610cb790612239565b60405180910390fd5b6000600960003373ffffffffffffffffffffffffffffffffffffffff1673ffffffffffffffffffffffffffffffffffffffff16815260200190815260200160002090506000816001015403610d4a576040517f08c379a0000000000000000000000000000000000000000000000000000000008152600401610d41906128ac565b60405180910390fd5b42816001015410610d90576040517f08c379a0000000000000000000000000000000000000000000000000000000008152600401610d879061293e565b60405180910390fd5b8060020160009054906101000a900460ff1615610de2576040517f08c379a0000000000000000000000000000000000000000000000000000000008152600401610dd9906129d0565b60405180910390fd5b6000338484604051602001610df993929190612a38565b60405160208183030381529060405280519060200120905081600001548114610e57576040517f08c379a0000000000000000000000000000000000000000000000000000000008152600401610e4e90612ab9565b60405180910390fd5b60065484604051602001610e6b919061272f565b6040516020818303038152906040528051906020012014610ec1576040517f08c379a0000000000000000000000000000000000000000000000000000000008152600401610eb890612b25565b60405180910390fd5b60003373ffffffffffffffffffffffffffffffffffffffff16600754604051610ee990612672565b60006040518083038185875af1925050503d8060008114610f26576040519150601f19603f3d011682016040523d82523d6000602084013e610f2b565b606091505b5050905080610f6f576040517f08c379a0000000000000000000000000000000000000000000000000000000008152600401610f6690612bb7565b60405180910390fd5b6001600860006101000a81548160ff0219169083151502179055505050505050565b60008111610fd4576040517f08c379a0000000000000000000000000000000000000000000000000000000008152600401610fcb90612c49565b60405180910390fd5b6000670de0b6b3a764000060035483610fed9190612c69565b610ff79190612386565b905080471161103b576040517f08c379a000000000000000000000000000000000000000000000000000000000815260040161103290612c49565b60405180910390fd5b6000600160009054906101000a900473ffffffffffffffffffffffffffffffffffffffff1673ffffffffffffffffffffffffffffffffffffffff166370a08231336040518263ffffffff1660e01b81526004016110989190611ffe565b602060405180830381865afa1580156110b5573d6000803e3d6000fd5b505050506040513d601f19601f820116820180604052508101906110d99190612833565b90508281101561111e576040517f08c379a000000000000000000000000000000000000000000000000000000000815260040161111590612d0c565b60405180910390fd5b600160009054906101000a900473ffffffffffffffffffffffffffffffffffffffff1673ffffffffffffffffffffffffffffffffffffffff166323b872dd3330866040518463ffffffff1660e01b815260040161117d93929190612d2c565b6020604051808303816000875af115801561119c573d6000803e3d6000fd5b505050506040513d601f19601f820116820180604052508101906111c09190612489565b5060003373ffffffffffffffffffffffffffffffffffffffff16836040516111e790612672565b60006040518083038185875af1925050503d8060008114611224576040519150601f19603f3d011682016040523d82523d6000602084013e611229565b606091505b505090508061126d576040517f08c379a000000000000000000000000000000000000000000000000000000000815260040161126490612daf565b60405180910390fd5b50505050565b61127b6119bf565b6112856000611a46565b565b60075481565b60008060009054906101000a900473ffffffffffffffffffffffffffffffffffffffff16905090565b60065481565b6060612710821061137857600160009054906101000a900473ffffffffffffffffffffffffffffffffffffffff1673ffffffffffffffffffffffffffffffffffffffff166379cc6790336127106040518363ffffffff1660e01b8152600401611326929190612e0a565b600060405180830381600087803b15801561134057600080fd5b505af1158015611354573d6000803e3d6000fd5b505050506040518060600160405280602b81526020016131c5602b9139905061146d565b6103e8821061143257600160009054906101000a900473ffffffffffffffffffffffffffffffffffffffff1673ffffffffffffffffffffffffffffffffffffffff166379cc6790336103e86040518363ffffffff1660e01b81526004016113e0929190612e6e565b600060405180830381600087803b1580156113fa57600080fd5b505af115801561140e573d6000803e3d6000fd5b505050506040518060600160405280602a81526020016131f0602a9139905061146d565b6040517f08c379a000000000000000000000000000000000000000000000000000000000815260040161146490612f2f565b60405180910390fd5b919050565b600160009054906101000a900473ffffffffffffffffffffffffffffffffffffffff1681565b60008034116114dc576040517f08c379a00000000000000000000000000000000000000000000000000000000081526004016114d390612f9b565b60405180910390fd5b6000600354670de0b6b3a7640000346114f59190612c69565b6114ff9190612386565b9050600061150b610bcd565b905081811015611550576040517f08c379a00000000000000000000000000000000000000000000000000000000081526004016115479061302d565b60405180910390fd5b600160009054906101000a900473ffffffffffffffffffffffffffffffffffffffff1673ffffffffffffffffffffffffffffffffffffffff1663a9059cbb33846040518363ffffffff1660e01b81526004016115ad929190612428565b6020604051808303816000875af11580156115cc573d6000803e3d6000fd5b505050506040513d601f19601f820116820180604052508101906115f09190612489565b6115f957600080fd5b819250505090565b6116096119bf565b600073ffffffffffffffffffffffffffffffffffffffff168173ffffffffffffffffffffffffffffffffffffffff160361167b5760006040517f1e4fbdf70000000000000000000000000000000000000000000000000000000081526004016116729190611ffe565b60405180910390fd5b61168481611a46565b50565b600260009054906101000a900473ffffffffffffffffffffffffffffffffffffffff1681565b6000600260009054906101000a900473ffffffffffffffffffffffffffffffffffffffff1673ffffffffffffffffffffffffffffffffffffffff1663e0c862896040518163ffffffff1660e01b81526004016020604051808303816000875af115801561171e573d6000803e3d6000fd5b505050506040513d601f19601f820116820180604052508101906117429190612833565b90506000600260009054906101000a900473ffffffffffffffffffffffffffffffffffffffff1673ffffffffffffffffffffffffffffffffffffffff1663fc2a88c36040518163ffffffff1660e01b8152600401602060405180830381865afa1580156117b3573d6000803e3d6000fd5b505050506040513d601f19601f820116820180604052508101906117d79190612833565b90506117e3828261188a565b600260009054906101000a900473ffffffffffffffffffffffffffffffffffffffff1673ffffffffffffffffffffffffffffffffffffffff1663d8a4676f836040518263ffffffff1660e01b815260040161183e9190611bf2565b600060405180830381865afa15801561185b573d6000803e3d6000fd5b505050506040513d6000823e3d601f19601f820116820180604052508101906118849190613110565b50505050565b61192282826040516024016118a092919061316c565b6040516020818303038152906040527ff666715a000000000000000000000000000000000000000000000000000000007bffffffffffffffffffffffffffffffffffffffffffffffffffffffff19166020820180517bffffffffffffffffffffffffffffffffffffffffffffffffffffffff8381831617835250505050611b0a565b5050565b6119bc8160405160240161193a9190611bf2565b6040516020818303038152906040527ff82c50f1000000000000000000000000000000000000000000000000000000007bffffffffffffffffffffffffffffffffffffffffffffffffffffffff19166020820180517bffffffffffffffffffffffffffffffffffffffffffffffffffffffff8381831617835250505050611b0a565b50565b6119c7611b24565b73ffffffffffffffffffffffffffffffffffffffff166119e561128d565b73ffffffffffffffffffffffffffffffffffffffff1614611a4457611a08611b24565b6040517f118cdaa7000000000000000000000000000000000000000000000000000000008152600401611a3b9190611ffe565b60405180910390fd5b565b60008060009054906101000a900473ffffffffffffffffffffffffffffffffffffffff169050816000806101000a81548173ffffffffffffffffffffffffffffffffffffffff021916908373ffffffffffffffffffffffffffffffffffffffff1602179055508173ffffffffffffffffffffffffffffffffffffffff168173ffffffffffffffffffffffffffffffffffffffff167f8be0079c531659141344cd1fd0a4f28419497f9722a3daafe3b4186f6b6457e060405160405180910390a35050565b611b2181611b19611b2c611b4d565b63ffffffff16565b50565b600033905090565b60006a636f6e736f6c652e6c6f679050600080835160208501845afa505050565b611b58819050919050565b611b60613195565b565b6000604051905090565b600080fd5b600080fd5b6000819050919050565b611b8981611b76565b8114611b9457600080fd5b50565b600081359050611ba681611b80565b92915050565b600060208284031215611bc257611bc1611b6c565b5b6000611bd084828501611b97565b91505092915050565b6000819050919050565b611bec81611bd9565b82525050565b6000602082019050611c076000830184611be3565b92915050565b611c1681611bd9565b8114611c2157600080fd5b50565b600081359050611c3381611c0d565b92915050565b600080fd5b6000601f19601f8301169050919050565b7f4e487b7100000000000000000000000000000000000000000000000000000000600052604160045260246000fd5b611c8782611c3e565b810181811067ffffffffffffffff82111715611ca657611ca5611c4f565b5b80604052505050565b6000611cb9611b62565b9050611cc58282611c7e565b919050565b600067ffffffffffffffff821115611ce557611ce4611c4f565b5b602082029050602081019050919050565b600080fd5b600073ffffffffffffffffffffffffffffffffffffffff82169050919050565b6000611d2682611cfb565b9050919050565b611d3681611d1b565b8114611d4157600080fd5b50565b600081359050611d5381611d2d565b92915050565b6000611d6c611d6784611cca565b611caf565b90508083825260208201905060208402830185811115611d8f57611d8e611cf6565b5b835b81811015611db85780611da48882611d44565b845260208401935050602081019050611d91565b5050509392505050565b600082601f830112611dd757611dd6611c39565b5b8135611de7848260208601611d59565b91505092915050565b60008060408385031215611e0757611e06611b6c565b5b6000611e1585828601611c24565b925050602083013567ffffffffffffffff811115611e3657611e35611b71565b5b611e4285828601611dc2565b9150509250929050565b600080fd5b600067ffffffffffffffff821115611e6c57611e6b611c4f565b5b611e7582611c3e565b9050602081019050919050565b82818337600083830152505050565b6000611ea4611e9f84611e51565b611caf565b905082815260208101848484011115611ec057611ebf611e4c565b5b611ecb848285611e82565b509392505050565b600082601f830112611ee857611ee7611c39565b5b8135611ef8848260208601611e91565b91505092915050565b600060208284031215611f1757611f16611b6c565b5b600082013567ffffffffffffffff811115611f3557611f34611b71565b5b611f4184828501611ed3565b91505092915050565b60008060408385031215611f6157611f60611b6c565b5b600083013567ffffffffffffffff811115611f7f57611f7e611b71565b5b611f8b85828601611ed3565b925050602083013567ffffffffffffffff811115611fac57611fab611b71565b5b611fb885828601611ed3565b9150509250929050565b600060208284031215611fd857611fd7611b6c565b5b6000611fe684828501611c24565b91505092915050565b611ff881611d1b565b82525050565b60006020820190506120136000830184611fef565b92915050565b61202281611b76565b82525050565b600060208201905061203d6000830184612019565b92915050565b600081519050919050565b600082825260208201905092915050565b60005b8381101561207d578082015181840152602081019050612062565b60008484015250505050565b600061209482612043565b61209e818561204e565b93506120ae81856020860161205f565b6120b781611c3e565b840191505092915050565b600060208201905081810360008301526120dc8184612089565b905092915050565b6000819050919050565b60006121096121046120ff84611cfb565b6120e4565b611cfb565b9050919050565b600061211b826120ee565b9050919050565b600061212d82612110565b9050919050565b61213d81612122565b82525050565b60006020820190506121586000830184612134565b92915050565b60006020828403121561217457612173611b6c565b5b600061218284828501611d44565b91505092915050565b600061219682612110565b9050919050565b6121a68161218b565b82525050565b60006020820190506121c1600083018461219d565b92915050565b7f54686520726964646c6520686173206265656e20736f6c76656420616c72656160008201527f64792c207761697420666f7220746865206e65787420726964646c6500000000602082015250565b6000612223603c8361204e565b915061222e826121c7565b604082019050919050565b6000602082019050818103600083015261225281612216565b9050919050565b7f416c726561647920636f6d6d6974656400000000000000000000000000000000600082015250565b600061228f60108361204e565b915061229a82612259565b602082019050919050565b600060208201905081810360008301526122be81612282565b9050919050565b7f4e6f2072657761726420617661696c61626c6520796574202d2054727920616760008201527f61696e206c617465720000000000000000000000000000000000000000000000602082015250565b600061232160298361204e565b915061232c826122c5565b604082019050919050565b6000602082019050818103600083015261235081612314565b9050919050565b7f4e487b7100000000000000000000000000000000000000000000000000000000600052601160045260246000fd5b600061239182611bd9565b915061239c83611bd9565b92508282026123aa81611bd9565b915082820484148315176123c1576123c0612357565b5b5092915050565b7f4e487b7100000000000000000000000000000000000000000000000000000000600052601260045260246000fd5b600061240282611bd9565b915061240d83611bd9565b92508261241d5761241c6123c8565b5b828206905092915050565b600060408201905061243d6000830185611fef565b61244a6020830184611be3565b9392505050565b60008115159050919050565b61246681612451565b811461247157600080fd5b50565b6000815190506124838161245d565b92915050565b60006020828403121561249f5761249e611b6c565b5b60006124ad84828501612474565b91505092915050565b60006124c182611bd9565b91506124cc83611bd9565b92508282019050808211156124e4576124e3612357565b5b92915050565b7f52657761726473206e6f7420617661696c61626c652079657400000000000000600082015250565b600061252060198361204e565b915061252b826124ea565b602082019050919050565b6000602082019050818103600083015261254f81612513565b9050919050565b7f4e487b7100000000000000000000000000000000000000000000000000000000600052603260045260246000fd5b600067ffffffffffffffff82169050919050565b60006125a482612585565b91506125af83612585565b9250828201905067ffffffffffffffff8111156125cf576125ce612357565b5b92915050565b7f436f6e747261637420686f6c6473206e6f204554482063757272656e746c7900600082015250565b600061260b601f8361204e565b9150612616826125d5565b602082019050919050565b6000602082019050818103600083015261263a816125fe565b9050919050565b600081905092915050565b50565b600061265c600083612641565b91506126678261264c565b600082019050919050565b600061267d8261264f565b9150819050919050565b7f436f756c646e2774207472616e736665722045544820746f206f776e65720000600082015250565b60006126bd601e8361204e565b91506126c882612687565b602082019050919050565b600060208201905081810360008301526126ec816126b0565b9050919050565b600081905092915050565b600061270982612043565b61271381856126f3565b935061272381856020860161205f565b80840191505092915050565b600061273b82846126fe565b915081905092915050565b7f57726f6e6720616e737765720000000000000000000000000000000000000000600082015250565b600061277c600c8361204e565b915061278782612746565b602082019050919050565b600060208201905081810360008301526127ab8161276f565b9050919050565b7f4661696c656420746f2073656e64206574686572000000000000000000000000600082015250565b60006127e860148361204e565b91506127f3826127b2565b602082019050919050565b60006020820190508181036000830152612817816127db565b9050919050565b60008151905061282d81611c0d565b92915050565b60006020828403121561284957612848611b6c565b5b60006128578482850161281e565b91505092915050565b7f4e6f20636f6d6d69742079657421000000000000000000000000000000000000600082015250565b6000612896600e8361204e565b91506128a182612860565b602082019050919050565b600060208201905081810360008301526128c581612889565b9050919050565b7f43616e6e6f7420636f6d6d697420616e642072657665616c20696e207468652060008201527f73616d6520626c6f636b21000000000000000000000000000000000000000000602082015250565b6000612928602b8361204e565b9150612933826128cc565b604082019050919050565b600060208201905081810360008301526129578161291b565b9050919050565b7f596f7520616c72656164792072657665616c656420796f757220736f6c75746960008201527f6f6e000000000000000000000000000000000000000000000000000000000000602082015250565b60006129ba60228361204e565b91506129c58261295e565b604082019050919050565b600060208201905081810360008301526129e9816129ad565b9050919050565b60008160601b9050919050565b6000612a08826129f0565b9050919050565b6000612a1a826129fd565b9050919050565b612a32612a2d82611d1b565b612a0f565b82525050565b6000612a448286612a21565b601482019150612a5482856126fe565b9150612a6082846126fe565b9150819050949350505050565b7f4861736820646f65736e2774206d617463680000000000000000000000000000600082015250565b6000612aa360128361204e565b9150612aae82612a6d565b602082019050919050565b60006020820190508181036000830152612ad281612a96565b9050919050565b7f496e636f7272656e7420616e7377657200000000000000000000000000000000600082015250565b6000612b0f60108361204e565b9150612b1a82612ad9565b602082019050919050565b60006020820190508181036000830152612b3e81612b02565b9050919050565b7f4661696c656420746f207265776172642077696e6e65722c207265766572746960008201527f6e672e2e2e000000000000000000000000000000000000000000000000000000602082015250565b6000612ba160258361204e565b9150612bac82612b45565b604082019050919050565b60006020820190508181036000830152612bd081612b94565b9050919050565b7f596f75206d6f73742073656c6c206d6f7265207468616e207a65726f20746f6b60008201527f656e730000000000000000000000000000000000000000000000000000000000602082015250565b6000612c3360238361204e565b9150612c3e82612bd7565b604082019050919050565b60006020820190508181036000830152612c6281612c26565b9050919050565b6000612c7482611bd9565b9150612c7f83611bd9565b925082612c8f57612c8e6123c8565b5b828204905092915050565b7f5365656d73206c696b6520796f7520686176656e277420676f7420656e6f756760008201527f6820746f6b656e73000000000000000000000000000000000000000000000000602082015250565b6000612cf660288361204e565b9150612d0182612c9a565b604082019050919050565b60006020820190508181036000830152612d2581612ce9565b9050919050565b6000606082019050612d416000830186611fef565b612d4e6020830185611fef565b612d5b6040830184611be3565b949350505050565b7f436f756c646e27742073656e642045544820746f207573657200000000000000600082015250565b6000612d9960198361204e565b9150612da482612d63565b602082019050919050565b60006020820190508181036000830152612dc881612d8c565b9050919050565b6000819050919050565b6000612df4612def612dea84612dcf565b6120e4565b611bd9565b9050919050565b612e0481612dd9565b82525050565b6000604082019050612e1f6000830185611fef565b612e2c6020830184612dfb565b9392505050565b6000819050919050565b6000612e58612e53612e4e84612e33565b6120e4565b611bd9565b9050919050565b612e6881612e3d565b82525050565b6000604082019050612e836000830185611fef565b612e906020830184612e5f565b9392505050565b7f5375626d6974206174206c6561737420312e30303020546f6b656e7320666f7260008201527f2061206e6f726d616c2c2031302e30303020666f722061207072656d69756d2060208201527f7265776172640000000000000000000000000000000000000000000000000000604082015250565b6000612f1960468361204e565b9150612f2482612e97565b606082019050919050565b60006020820190508181036000830152612f4881612f0c565b9050919050565b7f53656e642045544820746f2062757920746f6b656e7300000000000000000000600082015250565b6000612f8560168361204e565b9150612f9082612f4f565b602082019050919050565b60006020820190508181036000830152612fb481612f78565b9050919050565b7f56656e646f7220636f6e7472616374207365656d7320746f206e6f742068617660008201527f6520656e6f75676820746f6b656e730000000000000000000000000000000000602082015250565b6000613017602f8361204e565b915061302282612fbb565b604082019050919050565b600060208201905081810360008301526130468161300a565b9050919050565b600067ffffffffffffffff82111561306857613067611c4f565b5b602082029050602081019050919050565b600061308c6130878461304d565b611caf565b905080838252602082019050602084028301858111156130af576130ae611cf6565b5b835b818110156130d857806130c4888261281e565b8452602084019350506020810190506130b1565b5050509392505050565b600082601f8301126130f7576130f6611c39565b5b8151613107848260208601613079565b91505092915050565b6000806040838503121561312757613126611b6c565b5b600061313585828601612474565b925050602083015167ffffffffffffffff81111561315657613155611b71565b5b613162858286016130e2565b9150509250929050565b60006040820190506131816000830185611be3565b61318e6020830184611be3565b9392505050565b7f4e487b7100000000000000000000000000000000000000000000000000000000600052605160045260246000fdfe596f752074726164656420796f757220746f6b656e7320666f722061207072656d69756d20726577617264596f752074726164656420796f757220746f6b656e7320666f722061206e6f726d616c20726577617264a2646970667358221220464cb13d8692ae45dbdb83f4ccba09b8a1d6fdfc008c3ade45e2ba51467c2fe064736f6c63430008180033",
  "linkReferences": {},
  "deployedLinkReferences": {}
}